:040000000BEF00F012
:100008004082FACF0CF0FBCF0DF07BED06F09BEFB2
:020018000CF0EA
:100800000001000A006400E80310272057454C430C
:100810004F4D4520544F205254432100536574746A
:10082000696E6720436C6F636B2E2E2E00526563DA
:10083000656976656420537472696E673A0020209A
:10084000434F4D504C4554454420212121005761D0
:100850006974696E6720646174612E2E2E002020F9
:1008600048433035202D2044533133303700202089
:1008700053595354454D205245414459004C4F4122
:1008800044494E472E2E2E00434E20002575000071
:10089000D4EC0CF0010E1F6E010E6EEC0BF020EE8E
:1008A00002F02650D9262750DA22DF50286E285031
:1008B0001B6E1C6A000E1E6E0A0E1D6E3FEC09F0C8
:1008C0001B50300FDFEC0BF020EE02F02650D92643
:1008D0002750DA22DF50286E28501B6E1C6A000E4B
:1008E0001E6E0A0E1D6E6DEC0AF01B50300FDFEC11
:1008F0000BF03A0EDFEC0BF020EE01F02650D9267B
:100900002750DA22DF50286E28501B6E1C6A000E1A
:100910001E6E0A0E1D6E3FEC09F01B50300FDFEC0F
:100920000BF020EE01F02650D9262750DA22DF50B6
:10093000286E28501B6E1C6A000E1E6E0A0E1D6E5D
:100940006DEC0AF01B50300FDFEC0BF03A0EDFECD1
:100950000BF026C0D9FF27C0DAFFDF50286E2850E1
:100960001B6E1C6A000E1E6E0A0E1D6E3FEC09F017
:100970001B50300FDFEC0BF026C0D9FF27C0DAFF89
:10098000DF50286E28501B6E1C6A000E1E6E0A0E69
:100990001D6E6DEC0AF01B50300FDFEC0BF0010EFA
:1009A0001F6E020E6EEC0BF020EE03F02650D926DF
:1009B0002750DA22DE04D8A407D0880E206E080E55
:1009C000216EC2EC09F010D0540EDFEC0BF020EEDB
:1009D00003F02650D9262750DA22DF50300FDFEC03
:1009E0000BF03A0EDFEC0BF020EE04F02650D92687
:1009F0002750DA22DF50286E28501B6E1C6A000E2A
:100A00001E6E0A0E1D6E3FEC09F01B50300FDFEC1E
:100A10000BF020EE04F02650D9262750DA22DF50C2
:100A2000286E28501B6E1C6A000E1E6E0A0E1D6E6C
:100A30006DEC0AF01B50300FDFEC0BF02F0EDFECEB
:100A40000BF020EE05F02650D9262750DA22DF5091
:100A5000286E28501B6E1C6A000E1E6E0A0E1D6E3C
:100A60003FEC09F01B50300FDFEC0BF020EE05F0EF
:100A70002650D9262750DA22DF50286E28501B6EC8
:100A80001C6A000E1E6E0A0E1D6E6DEC0AF01B50E5
:100A9000300FDFEC0BF02F0EDFEC0BF0320EDFEC43
:100AA0000BF0300EDFEC0BF020EE06F02650D926CE
:100AB0002750DA22DF50286E28501B6E1C6A000E69
:100AC0001E6E0A0E1D6E3FEC09F01B50300FDFEC5E
:100AD0000BF020EE06F02650D9262750DA22DF5000
:100AE000286E28501B6E1C6A000E1E6E0A0E1D6EAC
:100AF0006DEC0AF01B50300FDFEC0BF01200D4EC61
:100B00000CF0010E1F6E010E6EEC0BF00B0E206E42
:100B1000080E216EC2EC09F0010E1F6E020E6EEC83
:100B20000BF05E0E206E080E216EC2EC09F0070E6F
:100B30001C6ED00E1B6E17EC0CF0D4EC0CF0010EFA
:100B40001F6E020E6EEC0BF0000E0001746F000EB3
:100B5000736F000174BF08D0000174510CE10F0ED7
:100B60000001735DD8B007D0DB0EDFEC0BF00001A5
:100B7000734B742BEED7000E0001726F010E716F74
:100B8000000E0001746F000E736F000174BF0AD075
:100B90000001745106E1650E0001735DD8B086D086
:100BA00001D084D0010E1F6E010E6EEC0BF07D0E95
:100BB000206E080E216EC2EC09F0670E276E000E43
:100BC000286E8C0E296E080E2A6E73C01BF074C03E
:100BD0001CF0000E1E6E0A0E1D6E3FEC09F01BC0CD
:100BE0002BF01CC02CF004EC08F00B0E1F6E010E55
:100BF0006EEC0BF0670E206E000E216EC2EC09F059
:100C0000670E276E000E286E8C0E296E080E2A6E57
:100C100073C01BF074C01CF0000E1E6E0A0E1D6E19
:100C20006DEC0AF01BC02BF01CC02CF004EC08F09B
:100C30000C0E1F6E010E6EEC0BF0670E206E000E98
:100C4000216EC2EC09F0250EDFEC0BF073C01BF037
:100C500074C01CF0000E1E6E070E1D6E6DEC0AF0C7
:100C60001B501C10D8A412D071C01FF0020E6EECE5
:100C70000BF00001714B722BFF0EDFEC0BF0000E3E
:100C80001C6E280E1B6E17EC0CF006D0000E1C6EAE
:100C9000320E1B6E17EC0CF00001734B742B00012D
:100CA00074BF80D70001745101E175D7D4EC0CF00A
:100CB000030E1C6EE80E1B6E17EC0CF0010E1F6E7F
:100CC000010E6EEC0BF03E0E206E080E216EC2EC93
:100CD00009F0010E1F6E020E6EEC0BF06E0E206E10
:100CE000080E216EC2EC09F0030E1C6EE80E1B6E9E
:100CF00017EC0CF012000600E9CF0EF0EACF0FF06F
:100D0000E1CF10F0E2CF11F0D9CF12F0DACF13F02B
:100D1000F3CF14F0F4CF15F0F6CF16F0F7CF17F0AD
:100D2000F8CF18F0F5CF19F09DBA9EAAABD02F508E
:100D300077E1100E2E5CD8B073D007EC0DF01A6E70
:100D40000D0E1A18D8A42BD0010E00017D6F300EA5
:100D5000046E000E056EA6EC08F0300E016E000E5B
:100D6000026E000E046E100E036E43EC0CF0000ECB
:100D70002F6E000E2E6EE2EC0CF0010E056E010ED1
:100D800096EC0BF01C0E066E080E076E34EC0AF0A3
:100D9000010E026EF40E016E2DEC0CF072D00A0EF4
:100DA0001A18D8A432D0000E00017D6FE2EC0CF0CE
:100DB000010E056E010E96EC0BF02D0E066E080E60
:100DC000076E34EC0AF0010E056E020E96EC0BF085
:100DD000300E066E000E076E34EC0AF0300E016E17
:100DE000000E026E000E046E100E036E43EC0CF04B
:100DF000000E2F6E000E2E6E050E026EDC0E016EC2
:100E00002DEC0CF0E2EC0CF03CD0300E2E24D96E20
:100E1000000E2F20DA6E1AC0DFFF2E4A2F2A31D0A3
:100E2000000E00017D6FE2EC0CF0010E056E010E6C
:100E300096EC0BF02D0E066E080E076E34EC0AF0E1
:100E4000010E056E020E96EC0BF0300E066E000ED3
:100E5000076E34EC0AF0300E016E000E026E000ECA
:100E6000046E100E036E43EC0CF0000E2F6E000E9D
:100E70002E6E050E026EDC0E016E2DEC0CF0E2EC17
:100E80000CF09E9A19C0F5FF18C0F8FF17C0F7FFC5
:100E900016C0F6FF15C0F4FF14C0F3FF13C0DAFF4D
:100EA00012C0D9FF11C0E2FF10C0E1FF0FC0EAFF7E
:100EB0000EC0E9FF0DC0FBFF0CC0FAFF409211000D
:100EC00028C060F029C061F02AC062F02BC063F036
:100ED000060ED89000016037613762376337E82E1D
:100EE000F8D70001601F611F621F631F602B000E97
:100EF000612362236323000E000160251B6E2D0E0B
:100F0000000161211C6E310E000162211D6E010E77
:100F1000000163211E6E28C064F029C065F02AC05C
:100F200066F02BC067F0060ED89000016437653775
:100F300066376737E82EF8D764C01FF065C020F029
:100F400066C021F067C022F081EC09F01BC02CF0D4
:100F50001CC02DF02D04D8A04BD028C060F029C0B3
:100F600061F02AC062F02BC063F0040ED89000013B
:100F70006037613762376337E82EF8D70001601FAA
:100F8000611F621F631F602B000E612362236323B6
:100F9000000E000160251B6E2D0E000161211C6EEC
:100FA000310E000162211D6E010E000163211E6ED3
:100FB00028C064F029C065F02AC066F02BC067F035
:100FC000040ED89000016437653766376737E82E1E
:100FD000F8D764C01FF065C020F066C021F067C07C
:100FE00022F081EC09F01BC02CF01CC02DF0AC8469
:100FF0002D04D8B012002CC0AFFFAC98AB8E948EED
:10100000948CAB88AC8A12002B0E0001616F000E2D
:101010000001626F87D0250E00016619D8B409D08F
:1010200027C0D9FF28C0DAFF66C0DFFF274A282A79
:1010300079D0000E0001606F04D0C00E0001601373
:1010400012D029C0F6FF2AC0F7FF294A2A2A080031
:10105000F5CF66F000016651000AD8B470D0750A69
:10106000D8B4EBD75FD061C0D9FF62C0DAFFDECF62
:1010700063F0DDCF64F0020E00016127000E6223F1
:10108000010E0001666F050E00016619D8B416D076
:1010900000016651020D010EF324F66E080EF420D5
:1010A000F76E0900F5500001635D0900F55000017D
:1010B0006459D8A003D00001662BE5D766C065F05F
:1010C0002BD000016551020D010EF324F66E080EBF
:1010D000F420F76E0900F5CF1DF00A00F5CF1EF0E1
:1010E00063C01BF064C01CF045EC0BF01BC022F089
:1010F0001CC023F0000E256E0A0E246EBEEC0BF011
:101100002250300F0001666F27C0D9FF28C0DAFFD8
:1011100066C0DFFF274A282A00016507000165290C
:10112000D8A4CFD729C0F6FF2AC0F7FF294A2A2A18
:101130000800F5CF66F000016651D8A46CD727C02F
:10114000D9FF28C0DAFF000EDF6E120004C0D9FFFD
:1011500005C0DAFF7F0EDF1620EE01F00450D9261D
:101160000550DA227F0EDF1620EE02F00450D92659
:101170000550DA223F0EDF1620EE03F00450D92688
:101180000550DA22070EDF1620EE04F00450D926AF
:101190000550DA223F0EDF1620EE05F00450D92666
:1011A0000550DA221F0EDF1603EC0DF0D00ECCEC4A
:1011B0000CF0000ECCEC0CF0000E076E000E066E6C
:1011C00007BE06D0075012E1080E065CD8B00ED05C
:1011D00006500424D96E07500520DA6EDF506AEC01
:1011E0000CF0CCEC0CF0064A072AEAD7FFEC0CF026
:1011F0001200000E956E939493969398FBEC09F071
:10120000C4EC0CF0000E286E960E296E000E2A6EAD
:10121000000E2B6E60EC07F09E9A9D8AF28CF28E87
:1012200081967FEC05F000017D05D8A413D0030E54
:101230001C6E840E1B6E17EC0CF0750E1E6E000EED
:101240001F6E11EC0BF0750E266E000E276E48EC2B
:1012500004F0E9D7D4EC0CF0010E1C6EF40E1B6EFA
:1012600017EC0CF04E0E206E080E216EC2EC09F049
:10127000010E1C6EF40E1B6E17EC0CF0D4D7000E92
:10128000206E1EAE06D01D6C1E1ED8B01E2A010E8A
:10129000206E1CAE06D01B6C1C1ED8B01C2A010E82
:1012A000201A000E226E000E216E1D501E10D8B4A2
:1012B0001CD0010E1F6E04D0D8901D361E361F2A7A
:1012C0001EAEFAD7D890213622361D501B5C1E5018
:1012D0001C58D8A005D01D501B5E1E501C5A2180E2
:1012E000D8901E321D321F2EEDD72050D8B404D016
:1012F000216C221ED8B0222A21C01BF022C01CF073
:101300001200000E236E000E246E000E256E000EDD
:10131000266E1F50201021102210D8B42AD0010EA2
:10132000276E06D0D8901F36203621362236272A3F
:1013300022AEF8D7D89023362436253626361F50CD
:101340001B5C20501C5821501D5822501E58D8A0FC
:1013500009D01F501B5E20501C5A21501D5A22508C
:101360001E5A2380D8902232213220321F32272E5B
:10137000E1D723C01BF024C01CF025C01DF026C0FF
:101380001EF01200000E256E000E246E1AD024509E
:101390002024226E25502120236E22C0F6FF23C078
:1013A000F7FFF86A070EF76403D00800F55005D080
:1013B000F6CFE9FFF7CFEAFFEF50DFEC0BF0244A5E
:1013C000252A24502024226E25502120236E22C05D
:1013D000F6FF23C0F7FFF86A070EF76403D0080092
:1013E000F55005D0F6CFE9FFF7CFEAFFEF5000093F
:1013F000D8B41200CCD7000EA5EC0AF0820E1F6EF6
:10140000DE0EE82EFED71F2EFCD7030E7BEC0CF071
:10141000210E1F6E760EE82EFED71F2EFCD700D0B1
:10142000030E7BEC0CF0480E1F6E6C0EE82EFED700
:101430001F2EFCD700D0030E7BEC0CF0020E7BECD1
:101440000CF0020E7BEC0CF0080E7BEC0CF0000EA6
:101450007BEC0CF00C0E7BEC0CF0000E7BEC0CF03B
:10146000060E7BEC0CF01200000E0B6E000E0A6EE6
:101470001AD00A500624086E0B500720096E08C0C7
:10148000F6FF09C0F7FFF86A070EF76403D00800FB
:10149000F55005D0F6CFE9FFF7CFEAFFEF50FBECB0
:1014A0000BF00A4A0B2A0A500624086E0B5007203C
:1014B000096E08C0F6FF09C0F7FFF86A070EF76467
:1014C00003D00800F55005D0F6CFE9FFF7CFEAFFCB
:1014D000EF500009D8B41200CCD7000E206E1CAE1D
:1014E00006D01B6C1C1ED8B01C2A010E206E1EAE2E
:1014F00004D01D6C1E1ED8B01E2A1D501E10D8B45C
:1015000018D0010E1F6E04D0D8901D361E361F2A2B
:101510001EAEFAD71D501B5C1E501C58D8A004D01C
:101520001D501B5E1E501C5AD8901E321D321F2E9D
:10153000F1D72050D8B404D01B6C1C1ED8B01C2A84
:101540001BC01BF01CC01CF012001C6E1CA003D0A2
:101550001B6A1B2A01D01B6A1B3A83501B18EF0B16
:101560001B18836E1CA203D01B6A1B2A01D01B6AA6
:101570001B3A1B4683501B18DF0B1B18836E1CA4E1
:1015800003D01B6A1B2A01D01B6A1B3A1B461B4651
:1015900083501B18BF0B1B18836E1CA603D01B6A3D
:1015A0001B2A01D01B6A1B321B3283501B187F0B76
:1015B0001B18836E1200026E02A003D0016A012A7A
:1015C00001D0016A013A83500118EF0B0118836EB4
:1015D00002A203D0016A012A01D0016A013A014640
:1015E00083500118DF0B0118836E02A403D0016A37
:1015F000012A01D0016A013A0146014683500118CF
:10160000BF0B0118836E02A603D0016A012A01D024
:10161000016A01320132835001187F0B0118836E79
:101620001200F7EC0CF0D00EBCEC0CF0000EBCEC91
:101630000CF0FBEC0CF0D10EBCEC0CF0000E216EAB
:10164000000E206E21BE06D021501CE1080E205C49
:10165000D8B018D020501E24D96E21501F20DA6E29
:10166000DBEC0CF059EC0CF0DF6E070E20182110AB
:10167000D8A403D0E9EC0CF002D0EEEC0CF0204A38
:10168000212AE0D7F3EC0CF01200000E216E000EC0
:10169000206E1D501E10D8B41CD0010E1F6E04D039
:1016A000D8901D361E361F2A1EAEFAD7D890203687
:1016B00021361D501B5C1E501C58D8A005D01D5053
:1016C0001B5E1E501C5A2080D8901E321D321F2EC9
:1016D000EDD720C01BF021C01CF01200206E2004AA
:1016E000D8A410D01F507F0F236E23380F0B216E0C
:1016F00023500F0B226E21507BEC0CF022507BEC20
:101700000CF01200020E2018D8A412001F50BF0FB8
:10171000236E23380F0B216E23500F0B226E2150A6
:101720007BEC0CF022507BEC0CF01200066E0604F1
:10173000D8A410D005507F0F096E09380F0B076E23
:1017400009500F0B086E07508BEC0CF008508BEC17
:101750000CF01200020E0618D8A412000550BF0F9C
:10176000096E09380F0B076E09500F0B086E0750F2
:101770008BEC0CF008508BEC0CF012002450251070
:10178000D8B418D0010E266E04D0D8902436253651
:10179000262A25AEFAD72450225C25502358D8A0FB
:1017A00004D02450225E2550235AD890253224326A
:1017B000262EF1D722C022F023C023F012001F6E84
:1017C0001F500F0B1D6E1F50F00B1E6E81841E38B4
:1017D0000F0BA5EC0AF08188420EE82EFED700D050
:1017E00081981D50A5EC0AF08188420EE82EFED7A4
:1017F00000D081981200056E05500F0B036E055046
:10180000F00B046E818404380F0BDBEC0AF0818846
:10181000420EE82EFED700D081980350DBEC0AF090
:101820008188420EE82EFED700D081981200000E6B
:101830001F6E000E1E6E0AD0070E1D6E7D0EE82E66
:10184000FED71D2EFCD700F01E4A1F2A1B501E5C1F
:101850001C501F58D8B01200EFD7000E056E000EB6
:10186000046E0AD0070E036E7D0EE82EFED7032EFF
:10187000FCD700F0044A052A0150045C02500558C8
:10188000D8B01200EFD7000E066E000E056E0AD01B
:1018900005500124D96E06500220DA6E000EDF6E6C
:1018A000054A062A0350055C04500658D8B01200B9
:1018B000EFD71C6E1CC01DF0D8901D32780E1D167F
:1018C0001CC01BF00F0E1B161D40E8423F0B1B24D3
:1018D0001D241200016E01C003F0000E026E090EFD
:1018E000036405D00A0E035E100E0226F8D70350DB
:1018F0000226025012001E6E81941E50A5EC0AF0C2
:1019000081881A0E1D6EF80EE82EFED71D2EFCD70C
:1019100000D081981200046E81940450DBEC0AF030
:1019200081881A0E036EF80EE82EFED7032EFCD720
:1019300000D08198120000017D6B00EE2EF0120E97
:10194000EE6AE806FDE140904092000EF86E00015C
:10195000F9EF08F0C5CF1BF01F0E1B16D8A4FAD75D
:10196000C7A41200F7D7C5CF01F01F0E0116D8A4E7
:10197000FAD7C7A41200F7D71C6E1CC0C9FFC7B0A6
:10198000FED7AAEC0CF0120093809382C78E280E2B
:10199000C66E310EC86E1200026E02C0C9FFC7B01B
:1019A000FED7B3EC0CF01200000E7BEC0CF0010E35
:1019B0007BEC0CF01200C586C7A0FED7AAEC0CF099
:1019C000C9501200000E8BEC0CF0010E8BEC0CF0E9
:1019D0001200C58AC588C5A81200FDD7C59AC5885A
:1019E000C5A81200FDD7C584C5A41200FDD7C580C7
:1019F000C5A01200FDD7C582C5A21200FDD7C584BF
:101A0000C5A41200FDD7C580C5A01200FDD79EAAAF
:061A1000FED7AE501200EB
:020000040020DA
:08000000FFFFFFFFFFFFFFFF00
:020000040030CA
:0E000000000C191EFF0080FF0FC00FE00F4024
:00000001FF
